:020000020000FC
:020000001FC01F
:02000800FBC13A
:0200100004C228
:1000400000E10EBF0FEF0DBF00E80ABB0FE004BBDD
:1000500000E007BB01BB0AE008BB0EE005BB0CECEF
:1000600000936A000AE009BF789441E0DF9800E15C
:10007000041B8FEF9FEF0197F1F70A95D1F7DF9AF5
:1000800000E1041B8FEF9FEF0197F1F70A95D1F77D
:02009000EDCFB2
:100400000F930FB70F93413021F04A95409545BBAC
:1004100040950F910FBF0F9118950F930FB70F9342
:100420004F3021F04395409545BB40950F910FBF4C
:040430000F9118957B
:00000001FF
